:020000040000FA
:060000000A128A110C280F
:10000800FE00030EF0000A08F1000A128A114B28BC
:100018000A128A110F2883010A128A111328033041
:100028008316031386000330831203138600831696
:10003800031789015630831603138100E0308B00C3
:100048008312031381018312031306110330F40092
:100058008A30F3005530F200F20B3028F30B3028C9
:10006800F40B302837288312031306150330F400E5
:100078008A30F3005530F200F20B4028F30B402889
:10008800F40B4028472827280A128A110C280B1D30
:100098004E284F285D280B1183120313810106187F
:1000A800562857285828061786185B285C285D2884
:1000B800061371088A00700E8300FE0E7E0E09007A
:04400E00F43FFF3F3D
:00000001FF
